{
  "_format": "hh-sol-artifact-1",
  "contractName": "LoanContract",
  "sourceName": "contracts/LoanContract.sol",
  "abi": [
    {
      "anonymous": false,
      "inputs": [
        {
          "indexed": true,
          "internalType": "address",
          "name": "wallet",
          "type": "address"
        }
      ],
      "name": "BorrowerRegistered",
      "type": "event"
    },
    {
      "anonymous": false,
      "inputs": [
        {
          "indexed": true,
          "internalType": "address",
          "name": "investor",
          "type": "address"
        },
        {
          "indexed": false,
          "internalType": "uint256",
          "name": "amount",
          "type": "uint256"
        }
      ],
      "name": "InvestmentMade",
      "type": "event"
    },
    {
      "anonymous": false,
      "inputs": [
        {
          "indexed": true,
          "internalType": "address",
          "name": "wallet",
          "type": "address"
        }
      ],
      "name": "InvestorRegistered",
      "type": "event"
    },
    {
      "anonymous": false,
      "inputs": [
        {
          "indexed": true,
          "internalType": "uint256",
          "name": "loanId",
          "type": "uint256"
        },
        {
          "indexed": true,
          "internalType": "address",
          "name": "borrower",
          "type": "address"
        },
        {
          "indexed": false,
          "internalType": "uint256",
          "name": "principal",
          "type": "uint256"
        },
        {
          "indexed": false,
          "internalType": "uint256",
          "name": "interestRate",
          "type": "uint256"
        },
        {
          "indexed": false,
          "internalType": "uint256",
          "name": "maturityDate",
          "type": "uint256"
        }
      ],
      "name": "LoanInitialized",
      "type": "event"
    },
    {
      "anonymous": false,
      "inputs": [
        {
          "indexed": true,
          "internalType": "uint256",
          "name": "loanId",
          "type": "uint256"
        },
        {
          "indexed": true,
          "internalType": "address",
          "name": "borrower",
          "type": "address"
        }
      ],
      "name": "LoanMatured",
      "type": "event"
    },
    {
      "anonymous": false,
      "inputs": [
        {
          "indexed": true,
          "internalType": "address",
          "name": "investor",
          "type": "address"
        },
        {
          "indexed": false,
          "internalType": "uint256",
          "name": "amount",
          "type": "uint256"
        }
      ],
      "name": "TokensMinted",
      "type": "event"
    },
    {
      "inputs": [],
      "name": "MAX_LOANS",
      "outputs": [
        {
          "internalType": "uint256",
          "name": "",
          "type": "uint256"
        }
      ],
      "stateMutability": "view",
      "type": "function"
    },
    {
      "inputs": [
        {
          "internalType": "uint256",
          "name": "",
          "type": "uint256"
        }
      ],
      "name": "borrowerList",
      "outputs": [
        {
          "internalType": "address",
          "name": "",
          "type": "address"
        }
      ],
      "stateMutability": "view",
      "type": "function"
    },
    {
      "inputs": [
        {
          "internalType": "address",
          "name": "",
          "type": "address"
        }
      ],
      "name": "borrowers",
      "outputs": [
        {
          "internalType": "address",
          "name": "wallet",
          "type": "address"
        },
        {
          "internalType": "uint256",
          "name": "totalLoans",
          "type": "uint256"
        }
      ],
      "stateMutability": "view",
      "type": "function"
    },
    {
      "inputs": [],
      "name": "getSPVMetrics",
      "outputs": [
        {
          "internalType": "uint256",
          "name": "totalLoansDisbursed_",
          "type": "uint256"
        },
        {
          "internalType": "uint256",
          "name": "totalInvested_",
          "type": "uint256"
        },
        {
          "internalType": "uint256",
          "name": "totalInterestCollected_",
          "type": "uint256"
        },
        {
          "internalType": "uint256",
          "name": "totalPrincipalRepaid_",
          "type": "uint256"
        },
        {
          "internalType": "uint256",
          "name": "currentCirculation_",
          "type": "uint256"
        }
      ],
      "stateMutability": "view",
      "type": "function"
    },
    {
      "inputs": [
        {
          "internalType": "uint256",
          "name": "",
          "type": "uint256"
        }
      ],
      "name": "investorList",
      "outputs": [
        {
          "internalType": "address",
          "name": "",
          "type": "address"
        }
      ],
      "stateMutability": "view",
      "type": "function"
    },
    {
      "inputs": [
        {
          "internalType": "address",
          "name": "",
          "type": "address"
        }
      ],
      "name": "investors",
      "outputs": [
        {
          "internalType": "address",
          "name": "wallet",
          "type": "address"
        },
        {
          "internalType": "uint256",
          "name": "investedAmount",
          "type": "uint256"
        }
      ],
      "stateMutability": "view",
      "type": "function"
    },
    {
      "inputs": [
        {
          "internalType": "uint256",
          "name": "",
          "type": "uint256"
        }
      ],
      "name": "loans",
      "outputs": [
        {
          "internalType": "address",
          "name": "borrower",
          "type": "address"
        },
        {
          "internalType": "uint256",
          "name": "principal",
          "type": "uint256"
        },
        {
          "internalType": "uint256",
          "name": "interestRate",
          "type": "uint256"
        },
        {
          "internalType": "uint256",
          "name": "maturityDate",
          "type": "uint256"
        },
        {
          "internalType": "bool",
          "name": "isMatured",
          "type": "bool"
        }
      ],
      "stateMutability": "view",
      "type": "function"
    },
    {
      "inputs": [
        {
          "internalType": "address",
          "name": "_borrower",
          "type": "address"
        }
      ],
      "name": "registerBorrower",
      "outputs": [],
      "stateMutability": "nonpayable",
      "type": "function"
    },
    {
      "inputs": [
        {
          "internalType": "address",
          "name": "_investor",
          "type": "address"
        }
      ],
      "name": "registerInvestor",
      "outputs": [],
      "stateMutability": "nonpayable",
      "type": "function"
    },
    {
      "inputs": [],
      "name": "runSimulation",
      "outputs": [],
      "stateMutability": "nonpayable",
      "type": "function"
    },
    {
      "inputs": [],
      "name": "spv",
      "outputs": [
        {
          "internalType": "uint256",
          "name": "totalLoansDisbursed",
          "type": "uint256"
        },
        {
          "internalType": "uint256",
          "name": "totalInterestCollected",
          "type": "uint256"
        },
        {
          "internalType": "uint256",
          "name": "totalPrincipalRepaid",
          "type": "uint256"
        },
        {
          "internalType": "uint256",
          "name": "totalInvested",
          "type": "uint256"
        },
        {
          "internalType": "uint256",
          "name": "totalSupply",
          "type": "uint256"
        }
      ],
      "stateMutability": "view",
      "type": "function"
    },
    {
      "inputs": [
        {
          "internalType": "address",
          "name": "",
          "type": "address"
        }
      ],
      "name": "spvBalances",
      "outputs": [
        {
          "internalType": "uint256",
          "name": "",
          "type": "uint256"
        }
      ],
      "stateMutability": "view",
      "type": "function"
    }
  ],
  "bytecode": "0x608060405234801561001057600080fd5b50611a29806100206000396000f3fe608060405234801561001057600080fd5b50600436106100b45760003560e01c8063abad742611610071578063abad742614610192578063b3a66524146101ae578063bf5d50c4146101de578063d5375bb01461020f578063e1ec3c681461022d578063f2ca156714610261576100b4565b806312f9b48e146100b9578063171e9461146100e957806336667f881461010b578063691c9484146101155780636f7bc9be146101315780638e32cda214610162575b600080fd5b6100d360048036038101906100ce9190611439565b610283565b6040516100e09190611508565b60405180910390f35b6100f16102c2565b6040516101029594939291906116af565b60405180910390f35b6101136102e6565b005b61012f600480360381019061012a9190611410565b610599565b005b61014b60048036038101906101469190611410565b610809565b604051610159929190611523565b60405180910390f35b61017c60048036038101906101779190611410565b61084d565b604051610189919061165d565b60405180910390f35b6101ac60048036038101906101a79190611410565b610865565b005b6101c860048036038101906101c39190611439565b610ad5565b6040516101d59190611508565b60405180910390f35b6101f860048036038101906101f39190611410565b610b14565b604051610206929190611523565b60405180910390f35b610217610b58565b604051610224919061165d565b60405180910390f35b61024760048036038101906102429190611439565b610b5d565b60405161025895949392919061154c565b60405180910390f35b610269610bc0565b60405161027a9594939291906116af565b60405180910390f35b6009818154811061029357600080fd5b906000526020600020016000915054906101000a900473ffffffffffffffffffffffffffffffffffffffff1681565b60008060000154908060010154908060020154908060030154908060040154905085565b6103246040518060400160405280601681526020017f5374617274696e672073696d756c6174696f6e2e2e2e00000000000000000000815250610c15565b6000600190505b6014811161048b576000600560008381526020019081526020016000209050600073ffffffffffffffffffffffffffffffffffffffff168160000160009054906101000a900473ffffffffffffffffffffffffffffffffffffffff1673ffffffffffffffffffffffffffffffffffffffff1614806103b757508060040160009054906101000a900460ff165b156104775760006007805490501115610476576000600780805490506001856103e091906117ff565b6103ea91906118f7565b81548110610421577f4e487b7100000000000000000000000000000000000000000000000000000000600052603260045260246000fd5b9060005260206000200160009054906101000a900473ffffffffffffffffffffffffffffffffffffffff1690506104748168056bc75e2d6310000060036303c267004261046e919061171e565b87610cae565b505b5b508080610483906118ae565b91505061032b565b5060005b60098054905081101561052c576000600982815481106104d8577f4e487b7100000000000000000000000000000000000000000000000000000000600052603260045260246000fd5b9060005260206000200160009054906101000a900473ffffffffffffffffffffffffffffffffffffffff169050610518816802b5e3af16b1880000610e56565b508080610524906118ae565b91505061048f565b506000600190505b601481116105585761054581610f27565b8080610550906118ae565b915050610534565b506105976040518060400160405280601581526020017f53696d756c6174696f6e20636f6d706c657465642e0000000000000000000000815250610c15565b565b600073ffffffffffffffffffffffffffffffffffffffff168173ffffffffffffffffffffffffffffffffffffffff161415610609576040517f08c379a00000000000000000000000000000000000000000000000000000000081526004016106009061163d565b60405180910390fd5b600073ffffffffffffffffffffffffffffffffffffffff16600860008373ffffffffffffffffffffffffffffffffffffffff1673ffffffffffffffffffffffffffffffffffffffff16815260200190815260200160002060000160009054906101000a900473ffffffffffffffffffffffffffffffffffffffff1673ffffffffffffffffffffffffffffffffffffffff1614156108065760405180604001604052808273ffffffffffffffffffffffffffffffffffffffff1681526020016000815250600860008373ffffffffffffffffffffffffffffffffffffffff1673ffffffffffffffffffffffffffffffffffffffff16815260200190815260200160002060008201518160000160006101000a81548173ffffffffffffffffffffffffffffffffffffffff021916908373ffffffffffffffffffffffffffffffffffffffff160217905550602082015181600101559050506009819080600181540180825580915050600190039060005260206000200160009091909190916101000a81548173ffffffffffffffffffffffffffffffffffffffff021916908373ffffffffffffffffffffffffffffffffffffffff1602179055508073ffffffffffffffffffffffffffffffffffffffff167f01e428601546e19350993364c26c5a618b33ef987abc24525c998748ae96429460405160405180910390a25b50565b60086020528060005260406000206000915090508060000160009054906101000a900473ffffffffffffffffffffffffffffffffffffffff16908060010154905082565b600a6020528060005260406000206000915090505481565b600073ffffffffffffffffffffffffffffffffffffffff168173ffffffffffffffffffffffffffffffffffffffff1614156108d5576040517f08c379a00000000000000000000000000000000000000000000000000000000081526004016108cc9061163d565b60405180910390fd5b600073ffffffffffffffffffffffffffffffffffffffff16600660008373ffffffffffffffffffffffffffffffffffffffff1673ffffffffffffffffffffffffffffffffffffffff16815260200190815260200160002060000160009054906101000a900473ffffffffffffffffffffffffffffffffffffffff1673ffffffffffffffffffffffffffffffffffffffff161415610ad25760405180604001604052808273ffffffffffffffffffffffffffffffffffffffff1681526020016000815250600660008373ffffffffffffffffffffffffffffffffffffffff1673ffffffffffffffffffffffffffffffffffffffff16815260200190815260200160002060008201518160000160006101000a81548173ffffffffffffffffffffffffffffffffffffffff021916908373ffffffffffffffffffffffffffffffffffffffff160217905550602082015181600101559050506007819080600181540180825580915050600190039060005260206000200160009091909190916101000a81548173ffffffffffffffffffffffffffffffffffffffff021916908373ffffffffffffffffffffffffffffffffffffffff1602179055508073ffffffffffffffffffffffffffffffffffffffff167f57c3b463895a0da2fe39978165ab8b71864d9225a91dd3bda7184006e52cdd0c60405160405180910390a25b50565b60078181548110610ae557600080fd5b906000526020600020016000915054906101000a900473ffffffffffffffffffffffffffffffffffffffff1681565b60066020528060005260406000206000915090508060000160009054906101000a900473ffffffffffffffffffffffffffffffffffffffff16908060010154905082565b601481565b60056020528060005260406000206000915090508060000160009054906101000a900473ffffffffffffffffffffffffffffffffffffffff16908060010154908060020154908060030154908060040160009054906101000a900460ff16905085565b6000806000806000806000015494506000600301549350600060010154925060006002015491506000600201546000800154610bfc91906117ff565b600060030154610c0c919061171e565b90509091929394565b610cab81604051602401610c29919061159f565b6040516020818303038152906040527f41304fac000000000000000000000000000000000000000000000000000000007bffffffffffffffffffffffffffffffffffffffffffffffffffffffff19166020820180517bffffffffffffffffffffffffffffffffffffffffffffffffffffffff838183161783525050505061116f565b50565b6040518060a001604052808673ffffffffffffffffffffffffffffffffffffffff168152602001858152602001848152602001838152602001600015158152506005600083815260200190815260200160002060008201518160000160006101000a81548173ffffffffffffffffffffffffffffffffffffffff021916908373ffffffffffffffffffffffffffffffffffffffff16021790555060208201518160010155604082015181600201556060820151816003015560808201518160040160006101000a81548160ff021916908315150217905550905050600660008673ffffffffffffffffffffffffffffffffffffffff1673ffffffffffffffffffffffffffffffffffffffff1681526020019081526020016000206001016000815480929190610ddc906118ae565b919050555083600080016000828254610df5919061171e565b925050819055508473ffffffffffffffffffffffffffffffffffffffff16817f090c362e74e220a52321bf2b491054b5dcf703d2e4d7125b6b1c084eecc708c4868686604051610e4793929190611678565b60405180910390a35050505050565b80600860008473ffffffffffffffffffffffffffffffffffffffff1673ffffffffffffffffffffffffffffffffffffffff1681526020019081526020016000206001016000828254610ea8919061171e565b925050819055508060006003016000828254610ec4919061171e565b92505081905550610ed58282611189565b8173ffffffffffffffffffffffffffffffffffffffff167f07146ef3ff2146eaf34fa4d392d4c56663333b682654b3123bf270f9ec529f3182604051610f1b919061165d565b60405180910390a25050565b60006005600083815260200190815260200160002090508060040160009054906101000a900460ff1680610fab5750600073ffffffffffffffffffffffffffffffffffffffff168160000160009054906101000a900473ffffffffffffffffffffffffffffffffffffffff1673ffffffffffffffffffffffffffffffffffffffff16145b15610fb6575061116c565b6000600c606483600201548460010154610fd091906117a5565b610fda9190611774565b610fe49190611774565b9050600060188360010154610ff99190611774565b90508160006001016000828254611010919061171e565b92505081905550806000600201600082825461102c919061171e565b925050819055508083600101600082825461104791906117ff565b925050819055506000836001015414156110e15760018360040160006101000a81548160ff0219169083151502179055508260000160009054906101000a900473ffffffffffffffffffffffffffffffffffffffff1673ffffffffffffffffffffffffffffffffffffffff16847f3323ee7d7a482cfd80d0ad37d020f51925fa55927e4e42de70c1fd581d4bcea860405160405180910390a35b6111296040518060600160405280602e81526020016119c6602e91398460000160009054906101000a900473ffffffffffffffffffffffffffffffffffffffff16848461124d565b6111686040518060400160405280601081526020017f4c6f616e20536c6f742049443a20257300000000000000000000000000000000815250856112ef565b5050505b50565b6111868161117e61138b6113ac565b63ffffffff16565b50565b80600a60008473ffffffffffffffffffffffffffffffffffffffff1673ffffffffffffffffffffffffffffffffffffffff16815260200190815260200160002060008282546111d8919061171e565b9250508190555080600060040160008282546111f4919061171e565b925050819055508173ffffffffffffffffffffffffffffffffffffffff167f3f2c9d57c068687834f0de942a9babb9e5acab57d516d3480a3c16ee165a427382604051611241919061165d565b60405180910390a25050565b6112e98484848460405160240161126794939291906115c1565b6040516020818303038152906040527ff8f51b1e000000000000000000000000000000000000000000000000000000007bffffffffffffffffffffffffffffffffffffffffffffffffffffffff19166020820180517bffffffffffffffffffffffffffffffffffffffffffffffffffffffff838183161783525050505061116f565b50505050565b611387828260405160240161130592919061160d565b6040516020818303038152906040527fb60e72cc000000000000000000000000000000000000000000000000000000007bffffffffffffffffffffffffffffffffffffffffffffffffffffffff19166020820180517bffffffffffffffffffffffffffffffffffffffffffffffffffffffff838183161783525050505061116f565b5050565b60006a636f6e736f6c652e6c6f679050600080835160208501845afa505050565b6113b7819050919050565b7f4e487b7100000000000000000000000000000000000000000000000000000000600052605160045260246000fd5b6000813590506113f581611997565b92915050565b60008135905061140a816119ae565b92915050565b60006020828403121561142257600080fd5b6000611430848285016113e6565b91505092915050565b60006020828403121561144b57600080fd5b6000611459848285016113fb565b91505092915050565b61146b81611833565b82525050565b61147a81611845565b82525050565b600061148b82611702565b611495818561170d565b93506114a581856020860161187b565b6114ae81611986565b840191505092915050565b60006114c6601d8361170d565b91507f43616e6e6f74207265676973746572207a65726f20616464726573732e0000006000830152602082019050919050565b61150281611871565b82525050565b600060208201905061151d6000830184611462565b92915050565b60006040820190506115386000830185611462565b61154560208301846114f9565b9392505050565b600060a0820190506115616000830188611462565b61156e60208301876114f9565b61157b60408301866114f9565b61158860608301856114f9565b6115956080830184611471565b9695505050505050565b600060208201905081810360008301526115b98184611480565b905092915050565b600060808201905081810360008301526115db8187611480565b90506115ea6020830186611462565b6115f760408301856114f9565b61160460608301846114f9565b95945050505050565b600060408201905081810360008301526116278185611480565b905061163660208301846114f9565b9392505050565b60006020820190508181036000830152611656816114b9565b9050919050565b600060208201905061167260008301846114f9565b92915050565b600060608201905061168d60008301866114f9565b61169a60208301856114f9565b6116a760408301846114f9565b949350505050565b600060a0820190506116c460008301886114f9565b6116d160208301876114f9565b6116de60408301866114f9565b6116eb60608301856114f9565b6116f860808301846114f9565b9695505050505050565b600081519050919050565b600082825260208201905092915050565b600061172982611871565b915061173483611871565b9250827fffffffffffffffffffffffffffffffffffffffffffffffffffffffffffffffff0382111561176957611768611928565b5b828201905092915050565b600061177f82611871565b915061178a83611871565b92508261179a57611799611957565b5b828204905092915050565b60006117b082611871565b91506117bb83611871565b9250817fffffffffffffffffffffffffffffffffffffffffffffffffffffffffffffffff04831182151516156117f4576117f3611928565b5b828202905092915050565b600061180a82611871565b915061181583611871565b92508282101561182857611827611928565b5b828203905092915050565b600061183e82611851565b9050919050565b60008115159050919050565b600073ffffffffffffffffffffffffffffffffffffffff82169050919050565b6000819050919050565b60005b8381101561189957808201518184015260208101905061187e565b838111156118a8576000848401525b50505050565b60006118b982611871565b91507fffffffffffffffffffffffffffffffffffffffffffffffffffffffffffffffff8214156118ec576118eb611928565b5b600182019050919050565b600061190282611871565b915061190d83611871565b92508261191d5761191c611957565b5b828206905092915050565b7f4e487b7100000000000000000000000000000000000000000000000000000000600052601160045260246000fd5b7f4e487b7100000000000000000000000000000000000000000000000000000000600052601260045260246000fd5b6000601f19601f8301169050919050565b6119a081611833565b81146119ab57600080fd5b50565b6119b781611871565b81146119c257600080fd5b5056fe426f72726f776572202573207061696420257320696e74657265737420616e64202573207072696e636970616c2ea2646970667358221220ce98c45ea4650f7d475d8fffb1dde33663870e1731d5f36660698985a656410f64736f6c63430008000033",
  "linkReferences": {},
  "deployedLinkReferences": {}
}